:020000040800F2
:1000000000000220D9040008790200087B020008E1
:100010007D0200087F020008810200080000000045
:100020000000000000000000000000008302000843
:10003000850200080000000087020008890200080D
:1000400029050008290500082905000829050008D8
:1000500029050008290500082905000829050008C8
:1000600029050008290500082905000829050008B8
:1000700029050008290500082905000829050008A8
:1000800029050008290500082905000800000000CE
:10009000000000000000000000000000290500082A
:1000A0002905000829050008290500082905000878
:1000B0002905000829050008290500082905000868
:1000C0002905000829050008290500082905000858
:1000D000290500082905000829050008000000007E
:1000E000290500082905000829050008000000006E
:1000F00000000000000000000000000029050008CA
:10010000000000002905000829050008290500084D
:1001100000000000000000000000000000000000DF
:1001200029050008290500082905000829050008F7
:100130002905000800000000000000000000000089
:100140000000000000000000000000002905000879
:1001500029050008290500082905000829050008C7
:100160002905000829050008000000000000000023
:10017000000000000000000000000000000000007F
:100180000000000029050008000000000000000039
:080190002905000829050008FB
:1001980010B5054C237833B9044B13B10448AFF3B9
:1001A80000800123237010BD0C0000200000000017
:1001B8007405000808B5034B1BB103490348AFF3A6
:1001C800008008BD00000000100000207405000831
:1001D80082B0002100910B4B1A6B42F080021A6327
:1001E8001A6B02F080020092009A01911A6B42F099
:1001F80001021A631B6B03F001030193019B02B018
:10020800704700BF0038024008B500F0DDF8FFF77E
:10021800DFFF00F023F9144A136B43F00103136363
:10022800124B1A6842F480621A605A6822F020025F
:100238005A609A6842F400629A60DA6822F440626E
:10024800DA600A4C636943F0200363614FF47A7003
:1002580000F0E6F8636923F0200363614FF47A70D5
:1002680000F0DEF8EDE700BF003802400000024071
:10027800FEE7FEE7FEE7FEE7FEE7704770477047D8
:1002880008B500F0BBF808BD82B0002100910B4B07
:100298005A6C42F480425A645A6C02F480420092CA
:1002A800009A01911A6C42F080521A641B6C03F098
:1002B80080530193019B02B0704700BF0038024091
:1002C800074AD36823F4E0631B041B0C000200F404
:1002D800E060034343F0BF6343F40033D3607047E7
:1002E80000ED00E000B5194BDB68C3F30223C3F14E
:1002F800070CBCF1040F28BF4FF0040C03F1040EE7
:10030800BEF1060F18D9033B4FF0FF3E0EFA0CFC66
:1003180021EA0C0199400EFA03F322EA0303194378
:1003280000280BDB0901C9B200F1604000F561400B
:1003380080F800135DF804FB0023E5E700F00F00E8
:100348000901C9B2024B1954F4E700BF00ED00E0FF
:1003580014ED00E00138B0F1807F0BD24FF0E023BC
:100368005861054AF02182F823100020986107227D
:100378001A6170470120704700ED00E010B504468F
:100388000E4B18784FF47A73B3FBF0F30C4A1068ED
:10039800B0FBF3F0FFF7DEFF68B90F2C01D901209D
:1003A8000AE0002221464FF0FF30FFF79BFF054B84
:1003B8001C60002000E0012010BD00BF00000020EC
:1003C800080000200400002008B50B4B1A6842F40E
:1003D80000721A601A6842F480621A601A6842F45D
:1003E80080721A600320FFF76BFF0F20FFF7C6FF2C
:1003F800FFF74AFF002008BD003C0240034A11688D
:10040800034B1B780B441360704700BF2800002083
:1004180000000020014B1868704700BF280000202A
:1004280038B50446FFF7F6FF0546B4F1FF3F02D0A2
:10043800044B1B781C44FFF7EDFF401BA042FAD386
:1004480038BD00BF00000020034AD2F8883043F4CA
:100458007003C2F88830704700ED00E01A4B1A6C40
:1004680042F080521A641A6842F480321A60164BBD
:100478001B6813F4003FFAD0134B9A6822F010025D
:100488009A609A6842F480529A609A6822F40052FC
:100498009A600E4A5A601A6842F080721A600A4BD3
:1004A8001B6813F0007FFAD0074A936843F00203F1
:1004B8009360054B9B6813F0080FFAD0024A536CFF
:1004C80043F48043536470470038024004194200E3
:1004D800DFF834D00D480E490E4A002302E0D45804
:1004E800C4500433C4188C42F9D30B4A0B4C002374
:1004F80001E013600432A242FBD3FFF7A5FF00F02E
:1005080011F8FFF781FE704700000220000000206C
:100518000C000020940500080C0000202C0000208E
:10052800FEE7000070B50D4D0D4C641BA4100026AD
:10053800A64209D10B4D0C4C00F018F8641BA4100E
:100548000026A64205D170BD55F8043B98470136F0
:10055800EEE755F8043B98470136F2E78C050008AA
:100568008C0500088C05000890050008F8B500BF48
:10057800F8BC08BC9E467047F8B500BFF8BC08BC7C
:040588009E467047D4
:04058C00BD010008A5
:0405900099010008C5
:0C05940001000000100000000024F40032
:04000005080004D912
:00000001FF
