:020000040800F2
:1000000000000220D1100008D9060008DB06000815
:10001000DD060008DF060008E10600080000000019
:10002000000000000000000000000000E3060008DF
:10003000E506000800000000E7060008E9060008E1
:1000400021110008211100082111000821110008C8
:100050002111000821110008211100088505000860
:1000600021110008211100082111000821110008A8
:100070002111000821110008211100082111000898
:1000800021110008211100082111000800000000C2
:100090000000000000000000000000002111000826
:1000A0002111000821110008211100082111000868
:1000B0002111000821110008211100082111000858
:1000C0002111000821110008211100082111000848
:1000D0002111000821110008211100080000000072
:1000E0002111000821110008211100080000000062
:1000F00000000000000000000000000021110008C6
:100100000000000021110008211100082111000841
:1001100000000000000000000000000000000000DF
:1001200021110008211100082111000821110008E7
:100130002111000800000000000000000000000085
:100140000000000000000000000000002111000875
:1001500021110008211100082111000821110008B7
:10016000211100082111000800000000000000001B
:10017000000000000000000000000000000000007F
:100180000000000021110008000000000000000035
:080190002111000821110008F3
:1001A00010B5054C237833B9044B13B10448AFF3B1
:1001B00000800123237010BD7000002000000000AB
:1001C0004021000808B5034B1BB103490348AFF3B6
:1001D000008008BD000000007400002040210008DD
:1001E00001F0FF01102A2BDB10F0070F08D010F8E8
:1001F000013B013A8B422DD010F0070F42B3F6D1EC
:10020000F0B441EA012141EA014122F007047FF004
:1002100000070023F0E80256083C85EA010586EA5B
:10022000010685FA47F5A3FA87F586FA47F6A5FA97
:1002300087F68EB9EED1F0BC01F0FF0102F00702A3
:1002400032B110F8013B013A83EA010313B1F8D14E
:100250000020704701387047002D06BF354603382F
:10026000073815F0010F07D1013015F4807F02BF68
:10027000013015F4C03F0130F0BC0138704700BFB9
:1002800053B94AB9002908BF00281CBF4FF0FF31FD
:100290004FF0FF3000F074B9ADF1080C6DE904CEF9
:1002A00000F006F8DDF804E0DDE9022304B0704751
:1002B0002DE9F047089D04468E46002B4DD18A4219
:1002C000944669D9B2FA82F252B101FA02F3C2F14C
:1002D000200120FA01F10CFA02FC41EA030E9440DD
:1002E0004FEA1C48210CBEFBF8F61FFA8CF708FBFE
:1002F00016E341EA034306FB07F199420AD91CEBD6
:10030000030306F1FF3080F01F81994240F21C8107
:10031000023E63445B1AA4B2B3FBF8F008FB10334F
:1003200044EA034400FB07F7A7420AD91CEB040484
:1003300000F1FF3380F00A81A74240F20781644454
:10034000023840EA0640E41B00261DB1D4400023D9
:10035000C5E900433146BDE8F0878B4209D9002D3D
:1003600000F0EF800026C5E9000130463146BDE8C7
:10037000F087B3FA83F6002E4AD18B4202D3824231
:1003800000F2F980841A61EB030301209E46002DE0
:10039000E0D0C5E9004EDDE702B9FFDEB2FA82F235
:1003A000002A40F09280A1EB0C014FEA1C471FFA93
:1003B0008CFE0126200CB1FBF7F307FB131140EA7A
:1003C00001410EFB03F0884208D91CEB010103F147
:1003D000FF3802D2884200F2CB804346091AA4B209
:1003E000B1FBF7F007FB101144EA01440EFB00FEDD
:1003F000A64508D91CEB040400F1FF3102D2A64542
:1004000000F2BB800846A4EB0E0440EA03409CE7E0
:10041000C6F12007B34022FA07FC4CEA030C20FA8D
:1004200007F401FA06F31C43F9404FEA1C4900FAAD
:1004300006F3B1FBF9F8200C1FFA8CFE09FB18112A
:1004400040EA014108FB0EF0884202FA06F20BD99D
:100450001CEB010108F1FF3A80F08880884240F2ED
:100460008580A8F102086144091AA4B2B1FBF9F031
:1004700009FB101144EA014100FB0EFE8E4508D92C
:100480001CEB010100F1FF346CD28E456AD90238B1
:10049000614440EA0840A0FB0294A1EB0E01A14296
:1004A000C846A64656D353D05DB1B3EB080261EB04
:1004B0000E0101FA07F722FA06F3F1401F43C5E9DE
:1004C000007100263146BDE8F087C2F12003D84014
:1004D0000CFA02FC21FA03F3914001434FEA1C4756
:1004E0001FFA8CFEB3FBF7F007FB10360B0C43EA48
:1004F000064300FB0EF69E4204FA02F408D91CEBF8
:10050000030300F1FF382FD29E422DD902386344F5
:100510009B1B89B2B3FBF7F607FB163341EA034195
:1005200006FB0EF38B4208D91CEB010106F1FF38E4
:1005300016D28B4214D9023E6144C91A46EA0046DB
:1005400038E72E46284605E70646E3E61846F8E66D
:100550004B45A9D2B9EB020864EB0C0E0138A3E7B6
:100560004646EAE7204694E74046D1E7D0467BE797
:10057000023B614432E7304609E76444023842E70F
:10058000704700BF064B5B6913F0020F07D0054BA5
:1005900001221A60024A536943F002035361704713
:1005A000003C01408C00002072B6FEE700B595B01B
:1005B0003022002108A800F0D9FD00230393049302
:1005C00005930693079301931F4A116C41F08051E4
:1005D0001164126C02F080520192019A02931B4B3B
:1005E0001A6842F440421A601B6803F440430293C5
:1005F000029B012308934FF48033099302220E9249
:100600004FF480030F9304231093642111911292ED
:10061000139308A800F088F888B90F2303930223E6
:100620000493002305934FF480520692079303210D
:1006300003A800F0DFFA20B915B05DF804FBFFF75E
:10064000B3FFFFF7B1FF00BF003802400070004069
:1006500038B500F003FCFFF7A9FF1C4A0321012075
:1006600000F046FC00F018FD00F0DEFC27E0184C1E
:10067000636943F0200363614FF47A7000F01AFC61
:10068000636923F0200363614FF47A7000F012FC79
:10069000104B00221A600135092DE8DD0C4C63690E
:1006A00043F0400363614FF47A7000F003FC636928
:1006B00023F0400363614FF47A7000F0FBFB054BBD
:1006C0001B68012BEAD10025E6E700BF582100088E
:1006D000000002408C000020FEE7FEE7FEE7FEE798
:1006E000FEE770477047704708B500F0D1FB08BDC2
:1006F00082B0002100910B4B5A6C42F480425A6444
:100700005A6C02F480420092009A01911A6C42F0F5
:1007100080521A641B6C03F080530193019B02B05A
:10072000704700BF00380240002800F0E08170B53B
:1007300082B00446036813F0010F3BD09F4B9B68C7
:1007400003F00C03042B2CD09C4B9B6803F00C0390
:10075000082B21D06368B3F5803F4FD0B3F5A02FAD
:1007600052D0964B1A6822F480321A601A6822F42A
:1007700080221A606368002B50D000F095FB05467C
:100780008E4B1B6813F4003F14D100F08DFB401B0F
:100790006428F5D90320B1E1884B5B6813F4800F1E
:1007A000D8D0864B1B6813F4003F03D06368002B3E
:1007B00000F09F81236813F0020F54D07F4B9B6899
:1007C00013F00C0F3ED07D4B9B6803F00C03082BFD
:1007D00033D0E368002B68D0794B01221A6000F017
:1007E00063FB0546754B1B6813F0020F54D100F0F4
:1007F0005BFB401B0228F5D903207FE16F4A136899
:1008000043F480331360B5E76C4B1A6842F48022DE
:100810001A601A6842F480321A60ABE700F044FBB9
:100820000546664B1B6813F4003FC3D000F03CFB49
:10083000401B6428F5D9032060E1604B5B6813F42A
:10084000800FC6D15D4B1B6813F0020F03D0E36825
:10085000012B40F05081594A136823F0F8032169B5
:1008600043EAC1031360236813F0080F42D06369A1
:100870006BB3534B0122C3F8802E00F015FB0546E5
:100880004E4B5B6F13F0020F34D100F00DFB401B99
:100890000228F5D9032031E1484A136823F0F80310
:1008A000216943EAC1031360DDE7454B00221A606A
:1008B00000F0FAFA0546414B1B6813F0020FD2D044
:1008C00000F0F2FA401B0228F5D9032016E13C4B58
:1008D0000022C3F8802E00F0E7FA0546374B5B6F25
:1008E00013F0020F06D000F0DFFA401B0228F5D902
:1008F000032003E1236813F0040F77D02F4B1B6C08
:1009000013F0805F33D1002301932C4B1A6C42F01B
:1009100080521A641B6C03F080530193019B0125E4
:10092000284B1B6813F4807F23D0A368012B34D09D
:10093000052B38D0214B1A6F22F001021A671A6F6B
:1009400022F004021A67A368002B3DD000F0ACFA35
:1009500006461A4B1B6F13F0020F46D100F0A4FAA3
:10096000801B41F288339842F3D90320C6E000256A
:10097000D6E7144A136843F48073136000F094FAC6
:100980000646104B1B6813F4807FCED100F08CFA22
:10099000801B0228F5D90320B0E0084A136F43F00A
:1009A00001031367CFE7054B1A6F42F004021A6781
:1009B0001A6F42F001021A67C5E700BF0038024013
:1009C000000047420070004000F06EFA0646524BAD
:1009D0001B6F13F0020F08D000F066FA801B41F283
:1009E00088339842F3D9032088E0EDB9A369002B3E
:1009F00000F08380484A926802F00C02082A51D025
:100A0000022B17D0454B00221A6600F04DFA04461F
:100A1000414B1B6813F0007F42D000F045FA001BE9
:100A20000228F5D9032069E03B4A136C23F0805378
:100A30001364DBE7394B00221A6600F035FA0546ED
:100A4000354B1B6813F0007F06D000F02DFA401BD9
:100A50000228F5D9032051E0E369226A1343626A50
:100A600043EA8213A26A5208013A43EA0243E26A65
:100A700043EA0263284A5360284B01221A6600F0B9
:100A800013FA0446244B1B6813F0007F06D100F0D4
:100A90000BFA001B0228F5D903202FE000202DE0DF
:100AA00000202BE0012B2BD01B4B5B6803F4800153
:100AB000E269914226D103F03F02216A8A4223D1A2
:100AC000616A47F6C0721A40B2EB811F1ED103F46F
:100AD0004031A26A5208013AB1EB024F18D103F03B
:100AE0007063E26AB3EB026F14D1002006E00120CC
:100AF0007047012002E0012000E0002002B070BD3C
:100B00000120FBE70120F9E70120F7E70120F5E7E5
:100B10000120F3E70120F1E70038024000004742DE
:100B200008B5314B9B6803F00C03042B57D0082BFE
:100B300057D12D4B5A6802F03F025B6813F4800FC7
:100B40002AD0294B5968C1F3881C4FEA4C11B1EBEC
:100B50000C006EEB0E0E4FEA8E1343EA9063810198
:100B6000091A63EB0E03DB0043EA5173C90011EB72
:100B70000C0C43F10003590200234FEA4C2041EAD8
:100B8000DC51FFF77DFB184B5B68C3F30143013376
:100B90005B00B0FBF3F025E0134B5968C1F3881CF0
:100BA0004FEA4C11B1EB0C006EEB0E0E4FEA8E13B8
:100BB00043EA90638101091A63EB0E03DB0043EA09
:100BC0005173C90011EB0C0C43F10003990200238F
:100BD0004FEA8C2041EA9C51FFF752FBD3E70348D0
:100BE00000E0034808BD00BF0038024000127A0050
:100BF0000024F400002800F09B8070B50D460446E8
:100C00004F4B1B6803F007038B4208D2CBB24C4A10
:100C10001370136803F007038B4240F08B80236846
:100C200013F0020F17D013F0040F04D0454A936855
:100C300043F4E0539360236813F0080F04D0414A53
:100C4000936843F4604393603E4A936823F0F00353
:100C5000A1680B439360236813F0010F32D06368DF
:100C6000012B21D09A1E012A25D9364A126812F08A
:100C7000020F61D033498A6822F0030213438B606C
:100C800000F012F906462F4B9B6803F00C036268D4
:100C9000B3EB820F16D000F007F9801B41F28833C6
:100CA0009842F0D9032042E0264A126812F4003F2D
:100CB000E0D101203BE0234A126812F0007FD9D135
:100CC000012034E01E4B1B6803F00703AB4207D939
:100CD000EAB21B4B1A701B6803F00703AB422DD11D
:100CE000236813F0040F06D0164A936823F4E053E8
:100CF000E1680B439360236813F0080F07D0114A93
:100D0000936823F46043216943EAC1039360FFF7CA
:100D100007FF0C4B9B68C3F303130B4AD35CD8400B
:100D20000A4B18600A4B186800F072F8002070BD7A
:100D3000012070470120FAE70120F8E70120F6E7DB
:100D4000003C0240003802406021000808000020FA
:100D500004000020074AD36823F4E0631B041B0C43
:100D6000000200F4E060034343F0BF6343F4003348
:100D7000D360704700ED00E000B5194BDB68C3F3AA
:100D80000223C3F1070CBCF1040F28BF4FF0040C81
:100D900003F1040EBEF1060F18D9033B4FF0FF3EDE
:100DA0000EFA0CFC21EA0C0199400EFA03F322EA38
:100DB0000303194300280BDB0901C9B200F16040AD
:100DC00000F5614080F800135DF804FB0023E5E7BF
:100DD00000F00F000901C9B2024B1954F4E700BF3B
:100DE00000ED00E014ED00E00138B0F1807F0BD29F
:100DF0004FF0E0235861054AF02182F823100020CB
:100E0000986107221A6170470120704700ED00E0E9
:100E100010B504460E4B18784FF47A73B3FBF0F319
:100E20000C4A1068B0FBF3F0FFF7DEFF68B90F2C37
:100E300001D901200AE0002221464FF0FF30FFF7E0
:100E40009BFF054B1C60002000E0012010BD00BF8F
:100E500000000020080000200400002008B50B4B13
:100E60001A6842F400721A601A6842F480621A60CA
:100E70001A6842F480721A600320FFF76BFF0F209C
:100E8000FFF7C6FFFFF734FC002008BD003C02401E
:100E9000034A1168034B1B780B441360704700BF73
:100EA0009000002000000020014B1868704700BF30
:100EB0009000002038B50446FFF7F6FF0546B4F170
:100EC000FF3F02D0044B1B781C44FFF7EDFF401B93
:100ED000A042FAD338BD00BF00000020034AD2F878
:100EE000883043F47003C2F88830704700ED00E0AA
:100EF00038B50C461546022811D003281AD024B361
:100F0000012C2DD03D49284600F050F998B33C4AB9
:100F1000D2F8303843F00103C2F8303838BD3948D0
:100F200000F02CF9364AD2F8403823F08053C2F84A
:100F30004038E4E7344800F021F9314AD2F840382B
:100F400043F08053C2F84038D9E7304800F016F932
:100F50002B4AD2F8443823F48043C2F84438D1E70E
:100F60002B4800F00BF9264AD2F8443843F480436A
:100F7000C2F84438C6E72749284600F017F938B1C7
:100F80001F4AD2F8303843F00203C2F83038C5E7C0
:100F90002149284600F00AF938B1194AD2F8303808
:100FA00043F00403C2F83038B8E71C49284600F083
:100FB000FDF838B1124AD2F8303843F00803C2F8CD
:100FC0003038ABE71649284600F0F0F838B10C4A43
:100FD000D2F8303843F01003C2F830389EE7114998
:100FE000284600F0E3F8002898D0054AD2F83038B7
:100FF00043F08003C2F8303890E700BF5821000862
:101000000030024070210008842100089C21000863
:10101000B8210008D4210008DC210008E4210008E0
:10102000EC210008F4210008174B1A6822F00C028A
:101030001A605A6822F002025A60DA6842F002022C
:10104000DA609A6842F004029A60104AD36823F08A
:10105000F003D3600E4B9A6822F002029A60DA68BD
:1010600042F00202DA601A6842F002021A60094B8A
:1010700093F8072342F0100283F807231A6842F01E
:1010800080021A60704700BF000002400038014033
:10109000003C014000E100E010B40C4B186840F443
:1010A00080621A60596821F020025A609A6842F4FE
:1010B00040649C6040F4A050186021F060015960C9
:1010C00042F470529A605DF8044B70470000024091
:1010D000DFF834D00D480E490E4A002302E0D45800
:1010E000C4500433C4188C42F9D30B4A0B4C002370
:1010F00001E013600432A242FBD3FFF7EFFE00F0E1
:1011000011F8FFF7A5FA7047000002200000002048
:1011100070000020A422000870000020A800002019
:10112000FEE7000070B50D4D0D4C641BA4100026A9
:10113000A64209D10B4D0C4C01F002F8641BA4101F
:101140000026A64205D170BD55F8043B98470136EC
:10115000EEE755F8043B98470136F2E79C22000879
:101160009C2200089C220008A0220008024403469A
:10117000934200D1704703F8011BF9E70FB40A4B03
:1011800013B51C6824B1A36913B9204600F07CF89C
:1011900005AB049AA1680193204600F0D3F902B090
:1011A000BDE8104004B070470C0000200A7870B50C
:1011B0006AB970BD9A4209D10C46054614F8013F40
:1011C000002BF6D015F8016F9E42F7D0013003785E
:1011D000002BEFD11846ECE7002310B50446C0E918
:1011E0000033C0E90433836081814366C281836137
:1011F000194608225C30FFF7B9FF054B6362054BC7
:10120000A362054BE362054B2462236310BD00BF5C
:10121000ED1A00080F1B0008471B00086B1B000895
:10122000014900F0AFB800BF451E000870B5682244
:101230004D1E55430E4605F1740100F0E5F80446D5
:1012400040B10021C0E900160C30A06005F1680231
:10125000FFF78CFF204670BD014800F0B3B800BF17
:1012600095000020014800F0AEB800BF95000020B6
:10127000014800F0A7B800BF96000020014800F028
:10128000A2B800BF9600002010B50446FFF7F0FF9B
:10129000A3691BB1BDE81040FFF7F0BFC4E91233EA
:1012A0002365134B134A1B68A262A34204BF0123A8
:1012B000A361204600F020F86060204600F01CF892
:1012C000A060204600F018F80022E0600421606869
:1012D000FFF782FFA06801220921FFF77DFFE06888
:1012E00002221221FFF778FF0123A361D2E700BF9A
:1012F000FC21000821120008F8B50746FFF7ACFFF3
:101300001E4B1E68B36913B93046FFF7BDFF483660
:10131000D6E90134013B03D533680BB33668F7E7F0
:10132000B4F90C50D5B9164BE36004F1580065666A
:1013300000F047F8FFF796FFC4E90155C4E90455EA
:101340002560A5610822294604F15C00FFF70EFF25
:10135000C4E90D55C4E912552046F8BD6834D9E7F3
:1013600004213846FFF762FF044630600028D5D1DB
:10137000FFF778FF0C233B60EEE700BFFC2100087D
:101380000100FFFF2DE9F8430646884600F14804B6
:101390000027D4E90195B9F1010905D52468002C8D
:1013A000F7D13846BDE8F883AB89012B07D9B5F9E9
:1013B0000E30013303D029463046C0470743683515
:1013C000E9E770477047704770B50E4E0C463168BC
:1013D000054611B900F07AFB30602146284600F03E
:1013E00075FB431C0AD0C41C24F00304A04207D0A0
:1013F000211A284600F06AFB013001D14FF0FF347A
:10140000204670BD9C0000202DE9F041CD1C25F048
:10141000030508350C2D38BF0C25002D074601DBD0
:10142000A94205D90C233B6000263046BDE8F08177
:101430002E4E00F0BBFD33681C4634BB29463846AF
:10144000FFF7C2FF431C04464DD134682646002EE8
:1014500040D123683146384604EB030800F036FBE0
:1014600080453AD1216803356D1A25F0030508350A
:101470000C2D38BF0C2529463846FFF7A5FF013053
:101480002BD023682B4423600EE02268521B1ED40D
:101490000B2A16D96119A342256018BF59606368E9
:1014A00008BF316062514B60384604F10B0600F012
:1014B00083FD26F00706231DF21AB6D09B1BA3500E
:1014C000B3E76268A3420CBF32605A60ECE7234680
:1014D0006468B2E734467668B9E70C233B60384667
:1014E00000F06AFDA1E72560DEE700BF980000205C
:1014F0009368013B002B10B4936008DA9469A3420F
:1015000001DB0A2903D15DF8044B00F033BB1368FB
:10151000581C1060197008465DF8044B7047F8B508
:1015200006460F461446D518AC4201D1002007E00C
:1015300014F8011B3A463046FFF7DAFF431CF3D19B
:10154000F8BD00002DE9F04F0D469DB014469846B9
:10155000064618B183690BB9FFF796FE894B9D4289
:101560001BD175686B6ED90705D4AB899A0502D477
:10157000A86DFFF727FFAB891B0701D52B69EBB9D6
:101580002946304600F05AFBC0B16B6EDC070ED521
:101590004FF0FF301DB0BDE8F08F7B4B9D4201D175
:1015A000B568DFE7794B9D4208BFF568DAE7AB899C
:1015B0009805EDD4A86DFFF706FFE9E7002309932E
:1015C00020238DF82930CDF80C803023DFF8C0813E
:1015D0008DF82A304FF0010923469A4613F8012B63
:1015E0000AB1252AF9D1BAEB040B0BD05B4622468F
:1015F00029463046FFF793FF013000F0AA80099A90
:101600005A4409929AF80030002B00F0A28000237F
:101610004FF0FF32CDE905230AF1010A0493079345
:101620008DF853301A935446052214F8011B58487C
:10163000FEF7D6FD049AD8B9D10644BF20238DF811
:101640005330130744BF2B238DF853309AF80030E2
:101650002A2B15D0079A544600204FF00A0C214639
:1016600011F8013B303B092B4ED9B0B1079214E081
:10167000A0EB080309FA03F313430493A246D2E74D
:10168000039B191D1B680391002BBBBF5B4242F0FB
:10169000020207930793B8BF049223782E2B0CD134
:1016A00063782A2B35D1039B1A1D1B680392002BEC
:1016B000B8BF4FF0FF3302340593DFF8E4A0217880
:1016C00003225046FEF78CFD40B14023A0EB0A00F8
:1016D00003FA00F0049B03430134049314F8011B44
:1016E0002C488DF828100622FEF77AFD00283FD0FE
:1016F000294B1BBB039B073323F0070308330393DA
:10170000099B3B44099367E70CFB02320C4601201E
:10171000A5E700230134059319464FF00A0C204633
:1017200010F8012B303A092A03D9002BC5D00591B6
:10173000C3E70CFB012104460123F0E703AB009350
:101740002A46164B04A93046AFF300800746781CA2
:10175000D6D16B6ED90705D4AB899A0502D4A86D92
:10176000FFF731FEAB895B063FF512AF099811E731
:1017700003AB00932A46094B04A9304600F080F8D9
:10178000E4E700BF202200084022000800220008F1
:10179000602200086A220008000000001F150008EF
:1017A000662200082DE9F047164699468A680B69BB
:1017B000DDF820809342B8BF1346336091F8432090
:1017C00007460C460AB1013333602368990642BFCD
:1017D000336802333360256815F0060506D104F13D
:1017E000190AE36832689B1AAB4226DC94F843205E
:1017F000131E226818BF012392062BD404F1430262
:1018000049463846C04701301ED02368E568326833
:1018100003F00603042B08BFAD1AA36822690CBFAE
:1018200025EAE57500259342C4BF9B1AED180026F2
:101830001A34B5421AD1002008E001235246494625
:101840003846C047013003D14FF0FF30BDE8F08784
:101850000135C6E7E1185A1C302081F843002244C4
:1018600094F8451082F843100233C7E7012322465B
:1018700049463846C0470130E6D00136D9E7000076
:101880002DE9FF470F7E0C9D782F914680460C4630
:101890009A4601F1430207D8622F0AD8002F00F0C0
:1018A000D880582F00F0A38004F1420584F84270DC
:1018B0003AE0A7F16303152BF6D801A151F823F004
:1018C000191900082D190008A9180008A9180008FE
:1018D000A9180008A91800082D190008A91800085F
:1018E000A9180008A9180008A9180008391A000842
:1018F0005D1900081B1A0008A9180008A91800089B
:101900005B1A0008A91800085D190008A91800084A
:10191000A9180008231A00082B681A1D1B682A60E2
:1019200004F1420584F842300123A3E020682968CD
:10193000060601F104030AD50E682B60002E03DAB7
:101940002D23764284F843305E480A2319E00E685E
:101950002B6010F0400F18BF36B2EFE72B682068FD
:10196000191D2960010601D51E6802E04606FBD557
:101970001E8854486F2F0CBF08230A23002184F8C7
:1019800043106568A560002DA2BF216821F0040105
:1019900021600EB9002D4DD01546B6FBF3F103FBC7
:1019A0001167C75D05F8017D3746BB420E46F4D985
:1019B000082B0BD12368DE0708D52369616899429B
:1019C000DEBF302305F8013C05F1FF35521B2261D3
:1019D000CDF800A04B4603AA21464046FFF7E2FEA1
:1019E00001304CD14FF0FF3004B0BDE8F0873548EE
:1019F00081F845702968236851F8046B29601D0639
:101A000014D5DF0744BF43F0200323601EB92368C9
:101A100023F0200323601023B0E7236843F0200362
:101A200023607823284884F84530E3E7590648BF07
:101A3000B6B2E6E71546BBE72B6826686169181D54
:101A4000286035061B6801D5196002E07006FBD5D9
:101A50001980002323611546BAE72B681A1D2A60F6
:101A60001D68626800212846FEF7BAFB08B1401BDA
:101A7000606063682361002384F84330A8E723692A
:101A80002A4649464046D0470130ABD023689B07E1
:101A900013D4E068039B9842B8BF1846A4E701231B
:101AA000324649464046D04701309BD00135E36875
:101AB00003995B1AAB42F2DCEBE7002504F119064F
:101AC000F5E700BF712200088222000838B5064DF4
:101AD0000023044608462B6000F01CFB431C02D187
:101AE0002B6803B1236038BDA000002010B50C4660
:101AF000B1F90E1000F0B2FA0028ABBF636DA389F4
:101B00001B1823F48053ACBF6365A38110BD2DE97E
:101B1000F0411F468B89DB0505460C46164605D568
:101B2000B1F90E100223002200F0C8F9A389B4F91C
:101B30000E1023F48053A38132463B462846BDE86D
:101B4000F04100F069B810B50C46B1F90E1000F084
:101B5000B5F9431CA38915BF606523F4805343F492
:101B60008053A38118BFA38110BDB1F90E1000F0FE
:101B7000D3B80000F8B50E461446054618B183697F
:101B80000BB9FFF781FB214B9C422BD16C68A369F9
:101B9000A360A3891A072FD523696BB32369206833
:101BA000C01A6369F6B28342374604DC21462846F0
:101BB00000F048F930BBA368013BA36023685A1CBE
:101BC00022601E7063690130834204D0A389DB0761
:101BD00006D50A2E04D12146284600F033F988B9EB
:101BE0003846F8BD0A4B9C4201D1AC68CFE7094B9F
:101BF0009C4208BFEC68CAE72146284600F01EF860
:101C00000028CBD04FF0FF37EAE700BF20220008C2
:101C1000402200080022000838B5074D0446084657
:101C2000114600222A601A4600F082FA431C02D1B3
:101C30002B6803B1236038BDA0000020324B70B583
:101C40001D6806460C4625B1AB6913B92846FFF757
:101C50001BFB2E4B9C420FD16C68A389B4F90C205E
:101C600019072CD4DD0611D40923336042F0400358
:101C7000A3814FF0FF303EE0254B9C4201D1AC6880
:101C8000EBE7244B9C4208BFEC68E6E7580712D507
:101C9000616B41B104F14403994202D0304600F037
:101CA00091F900236363A38923F02403A381002314
:101CB000636023692360A38943F00803A381236938
:101CC0004BB9A38903F42073B3F5007F03D02146F9
:101CD000304600F02BF9A089B4F90C2010F0010374
:101CE0000AD00023A36063695B42A361236943B9FF
:101CF00010F08000BAD170BD810758BF6369A3603E
:101D0000F4E70020F7E700BF0C00002020220008C5
:101D1000402200080022000838B5064D0023044682
:101D200008462B6000F0CEF9431C02D12B6803B1AA
:101D3000236038BDA00000208A892DE9F0410546C6
:101D400010070C4658D44B68002B05DC0B6C002B9D
:101D500002DC0020BDE8F081E66A002EF9D0002305
:101D600012F480522F682B6032D0606DA3895A071D
:101D700005D56368C01A636B0BB1236CC01A0023CE
:101D80000246E66A216A2846B047431CA38906D169
:101D900029681D292CD82A4ACA40D60728D50022EE
:101DA0006260D9042269226004D5421C01D12B68EB
:101DB00003B96065616B2F600029CAD004F1440348
:101DC000994202D0284600F0FDF800206063C1E788
:101DD000216A01232846B047411CC7D12B68002B3C
:101DE000C4D01D2B01D0162B01D12F60B1E7A389E0
:101DF00043F04003A381ADE70F69002FA9D09307FB
:101E00000E6808BF4B690F6018BF0023A6EB0708D8
:101E10008B60B8F1000F9CDD216AA66A43463A4602
:101E20002846B047002806DCA38943F04003A3817D
:101E30004FF0FF308EE70744A8EB0008E9E700BF4A
:101E40000100402038B50B6905460C4613B9002542
:101E5000284638BD18B183690BB9FFF715FA144B42
:101E60009C421BD16C68B4F90C30002BEFD0626E31
:101E7000D00704D4990502D4A06DFFF7A3FA284631
:101E80002146FFF759FF636EDA070546E0D4A389C0
:101E90009B05DDD4A06DFFF796FAD9E7054B9C4270
:101EA00001D1AC68DFE7044B9C4208BFEC68DAE77D
:101EB00020220008402200080022000838B5074D03
:101EC00004460846114600222A601A4600F012F91C
:101ED000431C02D12B6803B1236038BDA000002051
:101EE00070B50E46B1F90E10002996B014461D4685
:101EF00008DAB6F90C3000222A601A0610D44FF422
:101F000080630EE06A4600F0BBF80028F1DB019A1E
:101F100002F47042A2F500535A425A412A60EEE799
:101F200040230020236016B070BD00008B8973B57C
:101F30009D0706460C4607D504F14703236023613D
:101F40000123636102B070BD01AB6A46FFF7C8FFB1
:101F5000009905463046FFF757FA48B9B4F90C30F6
:101F60009A05EFD423F0030343F00203A381E3E7D0
:101F70000D4BB362A389206043F08003A381009BD3
:101F80006361019B20615BB1B4F90E10304600F033
:101F900089F828B1A38923F0030343F00103A38147
:101FA000A0890543A581CDE7211200080148FFF76C
:101FB00009BA00BF940000200148FFF704BA00BF2F
:101FC0009400002037B5002944D051F8043C01901A
:101FD000002BA1F10404B8BFE418FFF7E7FF1E4A85
:101FE0000198136833B96360146003B0BDE83040F2
:101FF000FFF7E2BFA34208D9256861198B4201BFF0
:1020000019685B6849192160EDE71A465B680BB1F6
:10201000A342FAD911685518A5420BD1246821446E
:102020005418A3421160E0D11C685B6853602144DE
:102030001160DAE702D90C230360D6E7256861193D
:102040008B4204BF19685B68636004BF4919216053
:102050005460CAE703B030BD9800002038B5074D82
:1020600004460846114600222A601A4600F04AF843
:10207000431C02D12B6803B1236038BDA0000020AF
:1020800038B5074D00230446084611462B6000F082
:1020900021F8431C02D12B6803B1236038BD00BF77
:1020A000A000002038B5064D0023044608462B60EA
:1020B00000F018F8431C02D12B6803B1236038BD2F
:1020C000A0000020024B58221A604FF0FF307047EA
:1020D000A0000020024B58221A604FF0FF307047DA
:1020E000A0000020024B58221A600020704700BF59
:1020F000A0000020024B58221A604FF0FF307047BA
:10210000A0000020024B58221A604FF0FF307047A9
:10211000A0000020044A05491368002B08BF0B46A5
:102120001844106018467047A4000020A800002042
:10213000024B58221A604FF0FF307047A000002079
:10214000F8B500BFF8BC08BC9E467047F8B500BFA4
:08215000F8BC08BC9E46704774
:102158004750494F41000000000000000000000007
:1021680001020304060708095243435F5057525FB0
:102178004F4E5F49535F434C4F5345005243435FB3
:102188005057525F4F4E5F49535F454E41424C4551
:10219800000000000D0A5243435F535953434F4E0A
:1021A8004649475F49535F44495341424C45000003
:1021B8000D0A5243435F535953434F4E4649475FB5
:1021C80049535F454E41424C450000004750494F36
:1021D800420000004750494F430000004750494F14
:1021E800440000004750494F450000004750494F00
:1021F800480000001000002000000000000000005F
:1022080000000000000000000000000000000000C6
:1022180000000000000000000000000000000000B6
:1022280000000000000000000000000000000000A6
:102238000000000000000000000000000000000096
:102248000000000000000000000000000000000086
:102258000000000000000000232D302B2000686CD7
:102268004C006566674546470030313233343536B1
:1022780037383941424344454600303132333435EA
:0C22880036373839616263646566000017
:082294001CE0FF7F01000000C7
:04229C00C501000870
:0422A000A101000890
:1022A40001000000100000000024F40010000020D1
:1022B400000000002022000840220008002200083C
:1022C400000000000000000000000000000000000A
:1022D40000000000000000000000000000000000FA
:1022E40000000000000000000000000000000000EA
:1022F40000000000000000000000000000000000DA
:1023040000000000000000000000000000000000C9
:04000005080010D10E
:00000001FF
